:100000000C945B000C9483000C9483000C9483008C
:100010000C9483000C9483000C9483000C94830054
:100020000C9483000C9483000C9483000C94830044
:100030000C9483000C9483000C9483000C94830034
:100040000C9426070C9483000C947D080C94830078
:100050000C9483000C9483000C9483000C94830014
:100060000C9483000C948300000024272A000025B0
:10007000282B000023262904040404040404040299
:100080000202020202030303030303010204081035
:100090002040800102040810200102040810200002
:1000A0000000070002010000030406000000000039
:1000B000000000000D0711241FBECFEFD4E0DEBF0B
:1000C000CDBF11E0A0E0B1E0EAE7F6E102C00590A3
:1000D0000D92AC38B107D9F712E0ACE8B1E001C03D
:1000E0001D92A632B107E1F710E0C6EBD0E004C0E4
:1000F0002297FE010E94370BC43BD107C9F70E942B
:100100004D040C943B0B0C9400002F923F924F92A5
:100110005F926F927F928F929F92AF92BF92CF9297
:10012000DF92EF92FF920F931F93DF93CF9300D054
:1001300000D0CDB7DEB71B012C015C834B8320E0E0
:1001400030E040E050E00E941F0988232CF460E07A
:1001500070E080E09FEB04C060E070E080E09FE32F
:1001600000E010E008C020E030E040E251E40E94EE
:1001700023090F5F1F4F2B813C81021713079CF34C
:100180009B01AC01C201B1010E94BB085B016C0183
:1001900020E030E040E050E0C201B1010E941F09C0
:1001A000882324F4D7FAD094D7F8D0940F2EFDECFE
:1001B0006F2EFCEC7F2EFCEC8F2EFDE39F2EF02D9E
:1001C0001A82198207C089819A8101969A8389834C
:1001D0003701480120E030E040E251E4C401B301BE
:1001E0000E946E0A7B018C01A60195010E941F09E5
:1001F00018164CF720E030E040E050E0C201B101B9
:100200000E941F0988232CF46DE288E991E00E9486
:100210005C04E981FA81EF2B51F42AE030E040E000
:1002200050E060E070E088E991E00E94C30544245A
:10023000552433C0A4019301C601B5010E942309CE
:100240000E948B097B018C010027F7FC0095102F81
:100250002AE030E0B801A70188E991E00E94C305D7
:10026000C801B7010E94BE09A40193010E946E0A51
:100270009B01AC01C601B5010E94BA085B016C018B
:1002800020E030E040E251E4C401B3010E942309C0
:100290003B014C010894411C511C29813A814216B2
:1002A000530644F28B819C8118161906ACF56EE258
:1002B00088E991E00E945C048824992420E030E0E1
:1002C00040E251E4C601B5010E946E0A5B016C0177
:1002D0000E948B097B018C010027F7FC0095102FF1
:1002E0002AE030E0B801A70188E991E00E94C30547
:1002F000C801B7010E94BE099B01AC01C601B5014E
:100300000E94BA085B016C010894811C911CEB816E
:10031000FC818E169F0694F20F900F900F900F9015
:10032000CF91DF911F910F91FF90EF90DF90CF90D1
:10033000BF90AF909F908F907F906F905F904F9005
:100340003F902F900895EF92FF920F931F93CF93BA
:10035000DF9310928F0110928E01109291011092F2
:10036000900160E0809178010E94760660E071E083
:1003700088E991E00E94A30463E288E991E00E9489
:100380005C0408C088E991E00E941B0790938D01EE
:1003900080938C0180918C0190918D01873691051D
:1003A00089F762E271E088E991E00E94A30461E0CC
:1003B000809178010E94760610928D0110928C0136
:1003C0000E948307709393016093920163E288E92E
:1003D00091E00E945C04609192017091930188E920
:1003E00091E00E94B30568EE73E080E090E00E9427
:1003F000910768EE73E080E090E00E94910768EE5C
:1004000073E080E090E00E94910780E00E94E605A2
:1004100090937B0180937A0181E00E94E605209110
:100420007A0130917B01821B930B90937D01809325
:100430007C0182E00E94E60520917C0130917D01E3
:10044000821B930B20917A0130917B01821B930BCD
:1004500090937F0180937E0183E00E94E605609186
:100460007E0170917F0122273327261B370B409195
:100470007C0150917D01241B350B23533F4F861B7C
:10048000970B280F391F30938101209380016CE274
:1004900071E088E991E00E9464046EE271E088E90D
:1004A00091E00E946404609182017091830188E967
:1004B00091E00E94B3056CE271E088E991E00E944E
:1004C000640466E371E088E991E00E94640460914D
:1004D0007A0170917B0188E991E00E94B3056CE29A
:1004E00071E088E991E00E94640460E471E088E9C9
:1004F00091E00E94640460917C0170917D0188E923
:1005000091E00E94B3056CE271E088E991E00E94FD
:1005100064046AE471E088E991E00E9464046091F7
:100520007E0170917F0188E991E00E94B3056CE241
:1005300071E088E991E00E94640464E571E088E973
:1005400091E00E946404609180017091810188E9CA
:1005500091E00E94B305C1E0D0E02091820130918A
:10056000830180917A0190917B01281739070CF063
:1005700079C180917C0190917D01281739070CF099
:1005800071C180917E0190917F01281739070CF08D
:1005900069C18091800190918101281739070CF081
:1005A00061C188E991E00E941B07839709F45AC151
:1005B00068EE73E080E090E00E94910780E00E9486
:1005C000E60590937B0180937A0181E00E94E60525
:1005D00020917A0130917B01821B930B90937D01D6
:1005E00080937C0182E00E94E60520917C0130919D
:1005F0007D01821B930B20917A0130917B01821B3C
:10060000930B90937F0180937E0183E00E94E60527
:1006100060917E0170917F0122273327261B370BC3
:1006200040917C0150917D01241B350B23533F4F9A
:10063000861B970B280F391F30938101209380016F
:100640000E948307AB01BC0188E991E00E94560536
:100650006EE571E088E991E00E94640460918E018A
:1006600070918F0188E991E00E94AB056EE571E021
:1006700088E991E00E9464040E9483070E94BC09FB
:100680007B018C016091920170919301882777FD25
:100690008095982F0E94BE099B01AC01C801B7014B
:1006A0000E94BA0820E030E64AE657E40E94230997
:1006B0009B01AC01209394013093950140939601E6
:1006C0005093970143E050E00E9485006EE571E091
:1006D00088E991E00E94640460917A0170917B0145
:1006E00088E991E00E94AB056EE571E088E991E050
:1006F0000E94640460917A0170917B01882777FDE4
:100700008095982F0E94BE0920E030E040EA50E436
:100710000E946E0A20E030EC4FE754E40E94230967
:1007200043E050E00E9485006EE571E088E991E0C9
:100730000E94640460917C0170917D0188E991E0E0
:100740000E94AB056EE571E088E991E00E946404C7
:1007500060917C0170917D01882777FD8095982FAD
:100760000E94BE0920E030E040EA50E40E946E0A98
:1007700020E030EC4FE754E40E94230943E050E0CE
:100780000E9485006EE571E088E991E00E946404B2
:1007900060917E0170917F0188E991E00E94AB0534
:1007A0006EE571E088E991E00E94640460917E0149
:1007B00070917F01882777FD8095982F0E94BE0950
:1007C00020E030E040EA50E40E946E0A20E030EC85
:1007D0004FE754E40E94230943E050E00E94850063
:1007E0006EE571E088E991E00E9464046091800107
:1007F0007091810188E991E00E94AB056EE571E09E
:1008000088E991E00E946404609180017091810107
:10081000882777FD8095982F0E94BE0920E030E060
:1008200040EA50E40E946E0A20E030EC4FE754E4C6
:100830000E94230943E050E00E94850062E671E0D7
:1008400088E991E00E94A30480918E0190918F012C
:10085000019690938F0180938E01D0939101C09364
:1008600090017BCE63E671E088E991E00E94A304E9
:10087000DF91CF911F910F91FF90EF90089561E06C
:10088000809178010E94580640E855E260E070E0EF
:1008900088E991E00E94210708950E94C9070E94FB
:1008A0003F040E94A301FDCFDC01ED91FC9101907A
:1008B000F081E02D09950895DC01ED91FC91019006
:1008C000F081E02D099508950F931F93CF93DF9347
:1008D0008C01EB0109C02196D801ED91FC910190AA
:1008E000F081E02DC801099568816623A1F7DF91A9
:1008F000CF911F910F9108950F931F938C01DC01ED
:10090000ED91FC910190F081E02D6DE00995D80109
:10091000ED91FC910190F081E02D6AE0C80109950C
:100920001F910F9108950F931F938C01DC01ED919E
:10093000FC910190F081E02D0995C8010E947C0492
:100940001F910F9108950F931F938C010E946404CF
:10095000C8010E947C041F910F9108950F931F936B
:100960008C01DC01ED91FC910190F081E02D099565
:10097000C8010E947C041F910F9108952F923F920D
:100980004F925F926F927F928F929F92AF92BF929F
:10099000CF92DF92EF92FF920F931F93DF93CF934B
:1009A000CDB7DEB7A0970FB6F894DEBF0FBECDBFB0
:1009B0001C016A017B01411551056105710549F46E
:1009C000DC01ED91FC910190F081E02D60E309954F
:1009D00054C0882499245401422E55246624772437
:1009E00001E010E00C0F1D1F080D191DC701B60115
:1009F000A30192010E94E40AF80160830894811C1B
:100A0000911CA11CB11CC701B601A30192010E9457
:100A1000E40AC901DA016C017D01C114D104E104C9
:100A2000F104F1F681E0E82EF12CEC0EFD1EE80C4D
:100A3000F91C3E010894611C711CD501C401019789
:100A4000A109B1096C01C818D90814C0F601EE0D4E
:100A5000FF1D60816A3010F4605D01C0695CD101E6
:100A6000ED91FC910190F081E02DC1010995089470
:100A7000E108F1086E147F0449F7A0960FB6F894C8
:100A8000DEBF0FBECDBFCF91DF911F910F91FF90C1
:100A9000EF90DF90CF90BF90AF909F908F907F901E
:100AA0006F905F904F903F902F9008952AE00E94A2
:100AB000BE0408950F931F938C010E945605C80130
:100AC0000E947C041F910F910895AB0160E070E0DB
:100AD0000E94560508950F931F938C01AB0160E0AF
:100AE00070E00E945605C8010E947C041F910F917E
:100AF0000895EF92FF920F931F93CF93DF93EC0132
:100B00007A018B0177FF0FC0E881F9810190F081B4
:100B1000E02D6DE2099510950095F094E094E11CAC
:100B2000F11C011D111D2AE0B801A701CE010E9490
:100B3000BE04DF91CF911F910F91FF90EF90089528
:100B40000F931F938C010E947905C8010E947C04B9
:100B50001F910F910895AB01662757FD6095762F81
:100B60000E94790508950F931F938C01AB016627AE
:100B700057FD6095762F0E947905C8010E947C047C
:100B80001F910F910895DC012115310541F4ED917C
:100B9000FC910190F081E02D642F099508952A3091
:100BA000310519F40E94790508950E94BE04089544
:100BB0000F931F938C010E94C305C8010E947C04FF
:100BC0001F910F9108958093840108958F709091E3
:100BD00084019295990F990F907C982B90937C00AB
:100BE00080917A00806480937A0080917A0086FDFB
:100BF000FCCF2091780040917900942F80E030E084
:100C0000282B392BC90108951F93CF93DF93182FF9
:100C1000EB0161E00E945806E12FF0E0E156FF4F42
:100C20008491833051F480918000806880938000AB
:100C3000D0938900C093880037C0843051F48091EC
:100C40008000806280938000D0938B00C0938A00E4
:100C50002BC0813029F484B5806884BDC7BD24C011
:100C6000823029F484B5806284BDC8BD1DC0863041
:100C700041F48091B00080688093B000C093B300CD
:100C800013C0873041F48091B00080628093B0003F
:100C9000C093B40009C0C038D10514F460E001C0AD
:100CA00061E0812F0E947606DF91CF911F91089518
:100CB000282F30E0C90185579F4FFC019491295896
:100CC0003F4FF9018491882381F0E82FF0E0E85943
:100CD000FF4FE491F0E0662329F480819095892309
:100CE000808308958081892B80830895482F50E068
:100CF000CA0181569F4FFC012491CA0185579F4F1D
:100D0000FC01949149585F4FFA0134913323C1F1AA
:100D1000222331F1233021F4809180008F7705C0A8
:100D2000243031F4809180008F7D8093800018C042
:100D3000213019F484B58F7704C0223021F484B5B2
:100D40008F7D84BD0DC0263021F48091B0008F7757
:100D500005C0273029F48091B0008F7D8093B000CA
:100D6000E32FF0E0E359FF4FE491F0E0662329F42C
:100D7000808190958923808308958081892B808349
:100D80000895482F50E0CA0181569F4FFC012491DD
:100D9000CA0185579F4FFC01949149585F4FFA0152
:100DA0003491332319F420E030E035C0222331F1AF
:100DB000233021F4809180008F7705C0243031F4F6
:100DC000809180008F7D8093800018C0213019F4BD
:100DD00084B58F7704C0223021F484B58F7D84BD23
:100DE0000DC0263021F48091B0008F7705C02730E8
:100DF00029F48091B0008F7D8093B000E32FF0E064
:100E0000EE58FF4FE491F0E0808120E030E089234C
:100E100011F021E030E0C901089589E891E0909354
:100E20009901809398010895862F0E943C080895A7
:100E30000E94740808950E94550808950E9444086D
:100E40000895CB01BA010E94030808951F920F92E2
:100E50000FB60F9211242F938F939F93AF93BF934D
:100E600080919A0190919B01A0919C01B0919D016C
:100E70008050904CAF4FBF4F80939A0190939B014D
:100E8000A0939C01B0939D0127C080919A019091FD
:100E90009B01A0919C01B0919D0180589E43A04070
:100EA000B04080939A0190939B01A0939C01B093D2
:100EB0009D0180919E0190919F01A091A001B09110
:100EC000A1010196A11DB11D80939E0190939F01E8
:100ED000A093A001B093A10180919A0190919B01F0
:100EE000A0919C01B0919D0181589E43A040B040CB
:100EF00060F6BF91AF919F918F912F910F900FBE90
:100F00000F901F9018958FB7F89420919E01309103
:100F10009F014091A0015091A1018FBFB901CA0169
:100F20000895EF92FF920F931F937B018C018FB76F
:100F3000F89440919E0150919F016091A0017091A1
:100F4000A1018FBF2FB7F89480919E0190919F01CE
:100F5000A091A001B091A1012FBF841B950BA60BFE
:100F6000B70B8E159F05A007B10760F31F910F9176
:100F7000FF90EF900895019759F0FC01EE0FFF1FCD
:100F8000EE0FFF1F32978FB7F8943197F1F78FBFAD
:100F90000895789484B5826084BD84B5816084BDF1
:100FA00085B5826085BD85B5816085BDEEE6F0E0E2
:100FB000808181608083E1E8F0E0808182608083CD
:100FC000808181608083E0E8F0E0808181608083BF
:100FD000E1EBF0E0808184608083E0EBF0E08081F1
:100FE00081608083EAE7F0E0808184608083808193
:100FF000826080838081816080838081806880833B
:101000001092C1000895EF92FF920F931F937B01FE
:101010008C0122E030E040E050E00E94060B205CB2
:101020003D4B404F5F4FCA01B901A80197010E9493
:10103000060BC901DA010197A109B109292F3A2F3D
:101040004B2F552747FD5A950196A11DB11D2093A1
:10105000C50081508093C400E1ECF0E080818061A4
:1010600080838081886080838081806880831F91F5
:101070000F91FF90EF900895982F8091C00085FF09
:10108000FCCF9093C60008958091A2019091A30196
:1010900080589F4F2091A4013091A501821B930B92
:1010A00060E870E00E94D10A08954091A401509137
:1010B000A5018091A2019091A3018417950719F4CD
:1010C0002FEF3FEF0FC0FA01EA55FE4F2081CA0112
:1010D000019660E870E00E94D10A9093A501809388
:1010E000A40130E0C90108958091A4019091A50167
:1010F0009093A3018093A20108951F920F920FB6BF
:101100000F9211242F933F934F935F936F937F938D
:101110008F939F93AF93BF93EF93FF934091C6003C
:10112000E091A201F091A301CF01019660E870E087
:101130000E94D10A9C018091A4019091A5012817D9
:10114000390739F0EA55FE4F40833093A3012093CD
:10115000A201FF91EF91BF91AF919F918F917F91EC
:101160006F915F914F913F912F910F900FBE0F9014
:101170001F9018955058BB27AA270ED075C166D16D
:1011800030F06BD120F031F49F3F11F41EF45BC1BD
:101190000EF4E095E7FB51C1E92F77D180F3BA1740
:1011A000620773078407950718F071F49EF58FC1E5
:1011B0000EF4E0950B2EBA2FA02D0B01B901900172
:1011C0000C01CA01A0011124FF27591B99F0593FB6
:1011D00050F4503E68F11A16F040A22F232F342FFE
:1011E0004427585FF3CF469537952795A795F0404C
:1011F0005395C9F77EF41F16BA0B620B730B840B61
:10120000BAF09150A1F0FF0FBB1F661F771F881F18
:10121000C2F70EC0BA0F621F731F841F48F4879570
:1012200077956795B795F7959E3F08F0B3CF93955F
:10123000880F08F09927EE0F979587950895D9D0D4
:1012400008F481E008950CD00FC107D140F0FED022
:1012500030F021F45F3F19F0F0C0511139C1F3C0F3
:1012600014D198F39923C9F35523B1F3951B550B6A
:10127000BB27AA2762177307840738F09F5F5F4F69
:10128000220F331F441FAA1FA9F333D00E2E3AF0AA
:10129000E0E830D091505040E695001CCAF729D0C4
:1012A000FE2F27D0660F771F881FBB1F2617370713
:1012B0004807AB07B0E809F0BB0B802DBF01FF2743
:1012C00093585F4F2AF09E3F510568F0B6C000C1A9
:1012D0005F3FECF3983EDCF3869577956795B7957D
:1012E000F7959F5FC9F7880F911D9695879597F998
:1012F0000895E1E0660F771F881FBB1F6217730711
:101300008407BA0720F0621B730B840BBA0BEE1F25
:1013100088F7E095089504D06894B111D9C0089574
:10132000BCD088F09F5790F0B92F9927B751A0F003
:10133000D1F0660F771F881F991F1AF0BA95C9F769
:1013400012C0B13081F0C3D0B1E00895C0C0672FA2
:10135000782F8827B85F39F0B93FCCF38695779519
:101360006795B395D9F73EF4909580957095619502
:101370007F4F8F4F9F4F0895E89409C097FB3EF42D
:1013800090958095709561957F4F8F4F9F4F9923D2
:10139000A9F0F92F96E9BB279395F6958795779550
:1013A0006795B795F111F8CFFAF4BB0F11F460FF10
:1013B0001BC06F5F7F4F8F4F9F4F16C0882311F068
:1013C00096E911C0772321F09EE8872F762F05C07C
:1013D000662371F096E8862F70E060E02AF09A9517
:1013E000660F771F881FDAF7880F9695879597F90C
:1013F0000895990F0008550FAA0BE0E8FEEF1616A6
:101400001706E807F907C0F012161306E407F507F8
:1014100098F0621B730B840B950B39F40A2661F06C
:10142000232B242B252B21F408950A2609F4A1400F
:10143000A6958FEF811D811D089597F99F6780E81C
:1014400070E060E008959FEF80EC089500240A9416
:101450001616170618060906089500240A9412168F
:101460001306140605060895092E0394000C11F4C2
:10147000882352F0BB0F40F4BF2B11F460FF04C06F
:101480006F5F7F4F8F4F9F4F089557FD9058440FC8
:10149000551F59F05F3F71F04795880F97FB991FD3
:1014A00061F09F3F79F08795089512161306140690
:1014B000551FF2CF4695F1DF08C01616170618061D
:1014C000991FF1CF86957105610508940895E894F8
:1014D000BB2766277727CB0197F908950BD0C4CF98
:1014E000B5DF28F0BADF18F0952309F0A6CFABCF0F
:1014F0001124EECFCADFA0F3959FD1F3950F50E0F2
:10150000551F629FF001729FBB27F00DB11D639FB5
:10151000AA27F00DB11DAA1F649F6627B00DA11D5B
:10152000661F829F2227B00DA11D621F739FB00D01
:10153000A11D621F839FA00D611D221F749F332771
:10154000A00D611D231F849F600D211D822F762F0A
:101550006A2F11249F5750408AF0E1F088234AF007
:10156000EE0FFF1FBB1F661F771F881F9150504053
:10157000A9F79E3F510570F060CFAACF5F3FECF313
:10158000983EDCF3869577956795B795F795E7953F
:101590009F5FC1F7FE2B880F911D9695879597F950
:1015A000089597FB092E07260AD077FD04D049D06D
:1015B00006D000201AF4709561957F4F0895F6F7D4
:1015C000909581959F4F0895A1E21A2EAA1BBB1BEF
:1015D000FD010DC0AA1FBB1FEE1FFF1FA217B307FF
:1015E000E407F50720F0A21BB30BE40BF50B661F15
:1015F000771F881F991F1A9469F7609570958095D9
:1016000090959B01AC01BD01CF01089597FB092E78
:1016100005260ED057FD04D0D7DF0AD0001C38F4C1
:1016200050954095309521953F4F4F4F5F4F08950E
:10163000F6F790958095709561957F4F8F4F9F4FEE
:101640000895AA1BBB1B51E107C0AA1FBB1FA61709
:10165000B70710F0A61BB70B881F991F5A95A9F75B
:1016600080959095BC01CD010895EE0FFF1F059068
:0A167000F491E02D0994F894FFCFE7
:10167A002353656E64206720666F722073746172EB
:10168A007420646973636861726765207465737432
:10169A002E00236720666F756E642E002300764D38
:1016AA00696E203D2000626174743031203D200053
:1016BA00626174743032203D200062617474303388
:1016CA00203D2000626174743034203D20002020C7
:1016DA002000002344697363686172676520636F41
:1016EA006D706C6574652E000700FF03FF03FF032E
:0C16FA00FF03CD000100000000140700F9
:00000001FF
